{
  "address": "0xC003Feffed816149aCAcf3213B3101985ffA9675",
  "abi": [
    {
      "inputs": [
        {
          "internalType": "address",
          "name": "jexaToken",
          "type": "address"
        }
      ],
      "stateMutability": "nonpayable",
      "type": "constructor"
    },
    {
      "inputs": [
        {
          "internalType": "address",
          "name": "sender",
          "type": "address"
        },
        {
          "internalType": "uint256",
          "name": "tokenId",
          "type": "uint256"
        },
        {
          "internalType": "address",
          "name": "owner",
          "type": "address"
        }
      ],
      "name": "ERC721IncorrectOwner",
      "type": "error"
    },
    {
      "inputs": [
        {
          "internalType": "address",
          "name": "operator",
          "type": "address"
        },
        {
          "internalType": "uint256",
          "name": "tokenId",
          "type": "uint256"
        }
      ],
      "name": "ERC721InsufficientApproval",
      "type": "error"
    },
    {
      "inputs": [
        {
          "internalType": "address",
          "name": "approver",
          "type": "address"
        }
      ],
      "name": "ERC721InvalidApprover",
      "type": "error"
    },
    {
      "inputs": [
        {
          "internalType": "address",
          "name": "operator",
          "type": "address"
        }
      ],
      "name": "ERC721InvalidOperator",
      "type": "error"
    },
    {
      "inputs": [
        {
          "internalType": "address",
          "name": "owner",
          "type": "address"
        }
      ],
      "name": "ERC721InvalidOwner",
      "type": "error"
    },
    {
      "inputs": [
        {
          "internalType": "address",
          "name": "receiver",
          "type": "address"
        }
      ],
      "name": "ERC721InvalidReceiver",
      "type": "error"
    },
    {
      "inputs": [
        {
          "internalType": "address",
          "name": "sender",
          "type": "address"
        }
      ],
      "name": "ERC721InvalidSender",
      "type": "error"
    },
    {
      "inputs": [
        {
          "internalType": "uint256",
          "name": "tokenId",
          "type": "uint256"
        }
      ],
      "name": "ERC721NonexistentToken",
      "type": "error"
    },
    {
      "inputs": [],
      "name": "InvalidAmount",
      "type": "error"
    },
    {
      "inputs": [],
      "name": "InvalidAmounts",
      "type": "error"
    },
    {
      "inputs": [],
      "name": "InvalidDuration",
      "type": "error"
    },
    {
      "inputs": [],
      "name": "InvalidERC20",
      "type": "error"
    },
    {
      "inputs": [],
      "name": "InvalidStartTime",
      "type": "error"
    },
    {
      "inputs": [],
      "name": "InvalidTimestamps",
      "type": "error"
    },
    {
      "inputs": [],
      "name": "InvalidTokenSymbol",
      "type": "error"
    },
    {
      "inputs": [],
      "name": "NothingToRelease",
      "type": "error"
    },
    {
      "inputs": [],
      "name": "NothingToSplit",
      "type": "error"
    },
    {
      "inputs": [],
      "name": "OnlyOwner",
      "type": "error"
    },
    {
      "inputs": [],
      "name": "ReentrancyGuardReentrantCall",
      "type": "error"
    },
    {
      "inputs": [
        {
          "internalType": "address",
          "name": "token",
          "type": "address"
        }
      ],
      "name": "SafeERC20FailedOperation",
      "type": "error"
    },
    {
      "inputs": [],
      "name": "ZeroAddress",
      "type": "error"
    },
    {
      "anonymous": false,
      "inputs": [
        {
          "indexed": true,
          "internalType": "address",
          "name": "owner",
          "type": "address"
        },
        {
          "indexed": true,
          "internalType": "address",
          "name": "approved",
          "type": "address"
        },
        {
          "indexed": true,
          "internalType": "uint256",
          "name": "tokenId",
          "type": "uint256"
        }
      ],
      "name": "Approval",
      "type": "event"
    },
    {
      "anonymous": false,
      "inputs": [
        {
          "indexed": true,
          "internalType": "address",
          "name": "owner",
          "type": "address"
        },
        {
          "indexed": true,
          "internalType": "address",
          "name": "operator",
          "type": "address"
        },
        {
          "indexed": false,
          "internalType": "bool",
          "name": "approved",
          "type": "bool"
        }
      ],
      "name": "ApprovalForAll",
      "type": "event"
    },
    {
      "anonymous": false,
      "inputs": [
        {
          "indexed": true,
          "internalType": "uint256",
          "name": "tokenId",
          "type": "uint256"
        },
        {
          "indexed": false,
          "internalType": "uint256",
          "name": "amount",
          "type": "uint256"
        }
      ],
      "name": "TokensReleased",
      "type": "event"
    },
    {
      "anonymous": false,
      "inputs": [
        {
          "indexed": true,
          "internalType": "address",
          "name": "from",
          "type": "address"
        },
        {
          "indexed": true,
          "internalType": "address",
          "name": "to",
          "type": "address"
        },
        {
          "indexed": true,
          "internalType": "uint256",
          "name": "tokenId",
          "type": "uint256"
        }
      ],
      "name": "Transfer",
      "type": "event"
    },
    {
      "anonymous": false,
      "inputs": [
        {
          "indexed": true,
          "internalType": "address",
          "name": "creator",
          "type": "address"
        },
        {
          "indexed": true,
          "internalType": "uint256",
          "name": "tokenId",
          "type": "uint256"
        },
        {
          "indexed": false,
          "internalType": "uint256",
          "name": "amount",
          "type": "uint256"
        },
        {
          "indexed": false,
          "internalType": "uint64",
          "name": "startTime",
          "type": "uint64"
        },
        {
          "indexed": false,
          "internalType": "uint64",
          "name": "duration",
          "type": "uint64"
        }
      ],
      "name": "VestingNFTMinted",
      "type": "event"
    },
    {
      "anonymous": false,
      "inputs": [
        {
          "indexed": true,
          "internalType": "address",
          "name": "owner",
          "type": "address"
        },
        {
          "indexed": true,
          "internalType": "uint256",
          "name": "originalId",
          "type": "uint256"
        },
        {
          "indexed": false,
          "internalType": "uint256[]",
          "name": "newTokenIds",
          "type": "uint256[]"
        }
      ],
      "name": "VestingNFTSplit",
      "type": "event"
    },
    {
      "inputs": [],
      "name": "JEXA_TOKEN",
      "outputs": [
        {
          "internalType": "contract IERC20",
          "name": "",
          "type": "address"
        }
      ],
      "stateMutability": "view",
      "type": "function"
    },
    {
      "inputs": [
        {
          "internalType": "address",
          "name": "to",
          "type": "address"
        },
        {
          "internalType": "uint256",
          "name": "tokenId",
          "type": "uint256"
        }
      ],
      "name": "approve",
      "outputs": [],
      "stateMutability": "nonpayable",
      "type": "function"
    },
    {
      "inputs": [
        {
          "internalType": "address",
          "name": "owner",
          "type": "address"
        }
      ],
      "name": "balanceOf",
      "outputs": [
        {
          "internalType": "uint256",
          "name": "",
          "type": "uint256"
        }
      ],
      "stateMutability": "view",
      "type": "function"
    },
    {
      "inputs": [
        {
          "internalType": "uint256",
          "name": "tokenId",
          "type": "uint256"
        }
      ],
      "name": "claimable",
      "outputs": [
        {
          "internalType": "uint256",
          "name": "",
          "type": "uint256"
        }
      ],
      "stateMutability": "view",
      "type": "function"
    },
    {
      "inputs": [
        {
          "internalType": "uint256",
          "name": "tokenId",
          "type": "uint256"
        }
      ],
      "name": "getApproved",
      "outputs": [
        {
          "internalType": "address",
          "name": "",
          "type": "address"
        }
      ],
      "stateMutability": "view",
      "type": "function"
    },
    {
      "inputs": [
        {
          "internalType": "address",
          "name": "owner",
          "type": "address"
        },
        {
          "internalType": "address",
          "name": "operator",
          "type": "address"
        }
      ],
      "name": "isApprovedForAll",
      "outputs": [
        {
          "internalType": "bool",
          "name": "",
          "type": "bool"
        }
      ],
      "stateMutability": "view",
      "type": "function"
    },
    {
      "inputs": [
        {
          "internalType": "uint64",
          "name": "startTime",
          "type": "uint64"
        },
        {
          "internalType": "uint64",
          "name": "duration",
          "type": "uint64"
        },
        {
          "internalType": "uint256",
          "name": "amount",
          "type": "uint256"
        }
      ],
      "name": "mintVesting",
      "outputs": [
        {
          "internalType": "uint256",
          "name": "tokenId",
          "type": "uint256"
        }
      ],
      "stateMutability": "nonpayable",
      "type": "function"
    },
    {
      "inputs": [],
      "name": "name",
      "outputs": [
        {
          "internalType": "string",
          "name": "",
          "type": "string"
        }
      ],
      "stateMutability": "view",
      "type": "function"
    },
    {
      "inputs": [
        {
          "internalType": "uint256",
          "name": "tokenId",
          "type": "uint256"
        }
      ],
      "name": "ownerOf",
      "outputs": [
        {
          "internalType": "address",
          "name": "",
          "type": "address"
        }
      ],
      "stateMutability": "view",
      "type": "function"
    },
    {
      "inputs": [
        {
          "internalType": "uint256",
          "name": "tokenId",
          "type": "uint256"
        }
      ],
      "name": "release",
      "outputs": [],
      "stateMutability": "nonpayable",
      "type": "function"
    },
    {
      "inputs": [
        {
          "internalType": "address",
          "name": "from",
          "type": "address"
        },
        {
          "internalType": "address",
          "name": "to",
          "type": "address"
        },
        {
          "internalType": "uint256",
          "name": "tokenId",
          "type": "uint256"
        }
      ],
      "name": "safeTransferFrom",
      "outputs": [],
      "stateMutability": "nonpayable",
      "type": "function"
    },
    {
      "inputs": [
        {
          "internalType": "address",
          "name": "from",
          "type": "address"
        },
        {
          "internalType": "address",
          "name": "to",
          "type": "address"
        },
        {
          "internalType": "uint256",
          "name": "tokenId",
          "type": "uint256"
        },
        {
          "internalType": "bytes",
          "name": "data",
          "type": "bytes"
        }
      ],
      "name": "safeTransferFrom",
      "outputs": [],
      "stateMutability": "nonpayable",
      "type": "function"
    },
    {
      "inputs": [
        {
          "internalType": "address",
          "name": "operator",
          "type": "address"
        },
        {
          "internalType": "bool",
          "name": "approved",
          "type": "bool"
        }
      ],
      "name": "setApprovalForAll",
      "outputs": [],
      "stateMutability": "nonpayable",
      "type": "function"
    },
    {
      "inputs": [
        {
          "internalType": "uint256",
          "name": "tokenId",
          "type": "uint256"
        },
        {
          "internalType": "uint256[]",
          "name": "amounts",
          "type": "uint256[]"
        }
      ],
      "name": "splitByAmounts",
      "outputs": [
        {
          "internalType": "uint256[]",
          "name": "newTokenIds",
          "type": "uint256[]"
        }
      ],
      "stateMutability": "nonpayable",
      "type": "function"
    },
    {
      "inputs": [
        {
          "internalType": "uint256",
          "name": "tokenId",
          "type": "uint256"
        },
        {
          "internalType": "uint64[]",
          "name": "timestamps",
          "type": "uint64[]"
        }
      ],
      "name": "splitByDates",
      "outputs": [
        {
          "internalType": "uint256[]",
          "name": "newTokenIds",
          "type": "uint256[]"
        }
      ],
      "stateMutability": "nonpayable",
      "type": "function"
    },
    {
      "inputs": [
        {
          "internalType": "uint256",
          "name": "tokenId",
          "type": "uint256"
        },
        {
          "internalType": "uint32[]",
          "name": "shares",
          "type": "uint32[]"
        }
      ],
      "name": "splitByShares",
      "outputs": [
        {
          "internalType": "uint256[]",
          "name": "newTokenIds",
          "type": "uint256[]"
        }
      ],
      "stateMutability": "nonpayable",
      "type": "function"
    },
    {
      "inputs": [
        {
          "internalType": "bytes4",
          "name": "interfaceId",
          "type": "bytes4"
        }
      ],
      "name": "supportsInterface",
      "outputs": [
        {
          "internalType": "bool",
          "name": "",
          "type": "bool"
        }
      ],
      "stateMutability": "view",
      "type": "function"
    },
    {
      "inputs": [],
      "name": "symbol",
      "outputs": [
        {
          "internalType": "string",
          "name": "",
          "type": "string"
        }
      ],
      "stateMutability": "view",
      "type": "function"
    },
    {
      "inputs": [
        {
          "internalType": "uint256",
          "name": "tokenId",
          "type": "uint256"
        }
      ],
      "name": "tokenURI",
      "outputs": [
        {
          "internalType": "string",
          "name": "",
          "type": "string"
        }
      ],
      "stateMutability": "view",
      "type": "function"
    },
    {
      "inputs": [
        {
          "internalType": "address",
          "name": "from",
          "type": "address"
        },
        {
          "internalType": "address",
          "name": "to",
          "type": "address"
        },
        {
          "internalType": "uint256",
          "name": "tokenId",
          "type": "uint256"
        }
      ],
      "name": "transferFrom",
      "outputs": [],
      "stateMutability": "nonpayable",
      "type": "function"
    },
    {
      "inputs": [
        {
          "internalType": "uint256",
          "name": "tokenId",
          "type": "uint256"
        }
      ],
      "name": "vestedAmount",
      "outputs": [
        {
          "internalType": "uint256",
          "name": "",
          "type": "uint256"
        }
      ],
      "stateMutability": "view",
      "type": "function"
    },
    {
      "inputs": [
        {
          "internalType": "uint256",
          "name": "tokenId",
          "type": "uint256"
        }
      ],
      "name": "vestingInfo",
      "outputs": [
        {
          "components": [
            {
              "internalType": "uint64",
              "name": "startTime",
              "type": "uint64"
            },
            {
              "internalType": "uint64",
              "name": "duration",
              "type": "uint64"
            },
            {
              "internalType": "uint256",
              "name": "amount",
              "type": "uint256"
            },
            {
              "internalType": "uint256",
              "name": "released",
              "type": "uint256"
            }
          ],
          "internalType": "struct JEXAVestingNFT.VestingPosition",
          "name": "",
          "type": "tuple"
        }
      ],
      "stateMutability": "view",
      "type": "function"
    }
  ],
  "transactionHash": "0x7d90173809ee65cc497a7a9113341ea63786fad38a22c328413b5c2c34dfb7ea",
  "args": [
    "0x8B0aE40C03994Abc55654b51b3a5f2D0d0c7cAd9"
  ],
  "numDeployments": 1,
  "solcInputHash": "6d611013ac9021f1d0fa15c028254c35",
  "bytecode": "0x60a06040523461036a5761238b6020813803918261001c8161036e565b93849283398101031261036a57516001600160a01b0381169081900361036a57610046604061036e565b90601582527f4a45584156657374696e674e4654202854455354290000000000000000000000602083015261007b604061036e565b600e81526d129156104b559154d50b551154d560921b602082015282519091906001600160401b03811161027e575f54600181811c91168015610360575b602082101461026057601f81116102fe575b506020601f821160011461029d57819293945f92610292575b50508160011b915f199060031b1c1916175f555b81516001600160401b03811161027e57600154600181811c91168015610274575b602082101461026057601f81116101fd575b50602092601f821160011461019c57928192935f92610191575b50508160011b915f199060031b1c1916176001555b801561018257608052604051611ff79081610394823960805181818161021401526112130152f35b63d92e233d60e01b5f5260045ffd5b015190505f80610145565b601f1982169360015f52805f20915f5b8681106101e557508360019596106101cd575b505050811b0160015561015a565b01515f1960f88460031b161c191690555f80806101bf565b919260206001819286850151815501940192016101ac565b60015f527fb10e2d527612073b26eecdfd717e6a320cf44b4afac2b0732d9fcbe2b7fa0cf6601f830160051c81019160208410610256575b601f0160051c01905b81811061024b575061012b565b5f815560010161023e565b9091508190610235565b634e487b7160e01b5f52602260045260245ffd5b90607f1690610119565b634e487b7160e01b5f52604160045260245ffd5b015190505f806100e4565b601f198216905f8052805f20915f5b8181106102e6575095836001959697106102ce575b505050811b015f556100f8565b01515f1960f88460031b161c191690555f80806102c1565b9192602060018192868b0151815501940192016102ac565b5f80527f290decd9548b62a8d60345a988386fc84ba6bc95484008f6362f93160ef3e563601f830160051c81019160208410610356575b601f0160051c01905b81811061034b57506100cb565b5f815560010161033e565b9091508190610335565b90607f16906100b9565b5f80fd5b6040519190601f01601f191682016001600160401b0381118382101761027e5760405256fe6080806040526004361015610012575f80fd5b5f3560e01c90816301ffc9a7146114555750806306fdde031461139d578063081812fc14611361578063095ea7b3146112775780631bfce8531461125957806323b872dd14611242578063312c99b1146111fe57806337bdc99b146111b157806342842e0e146111825780636352211e1461115257806366ffcf5f146110b457806370a08231146110635780639494587e14610d1f57806395d89b4114610c2b578063a22cb46514610b90578063b88d4fde14610afb578063c87b56dd146108b1578063d1d58b251461088b578063d55f6101146105a2578063e985e9c51461054b578063ee305f2e146102c05763f6859da61461010e575f80fd5b346102bc5760603660031901126102bc576004356001600160401b0381168091036102bc576024356001600160401b0381168091036102bc5760443591610153611b3a565b4281106102ad57811561029e57821561028f5760209260016007540192839283600755604051610182816115d8565b81815260028782018481526040830186815260608401915f8352885f5260068b526001600160401b0360405f2095511667ffffffffffffffff60401b8654925160401b16916001600160801b03191617178455516001840155519101556102386040516323b872dd60e01b8882015233602482015230604482015284606482015260648152610212608482611607565b7f0000000000000000000000000000000000000000000000000000000000000000611f3e565b6102428433611b6f565b6040519283528583015260408201527f212052766936ffdab53f2e1a0939fa91a1db7d2d82f3198246e3062d18349e8f60603392a35f5f516020611fa25f395f51905f525d604051908152f35b63162908e360e11b5f5260045ffd5b637616640160e01b5f5260045ffd5b632ca4094f60e21b5f5260045ffd5b5f80fd5b346102bc576102ce3661154a565b90916102d8611b3a565b6102e181611a20565b336001600160a01b039091160361053c57600282106104fa57805f52600660205260405f209260405193610314856115d8565b8054906001600160401b0382168087526001600160401b03602088019360401c168352600260018301549260408901938452015460608801526001600160401b034216101561052d575194855f5f5b8781106105095750036104fa579391949061037d83611926565b9461038785611a20565b93600754975f935b828510610429576104258989898d6103a78b15611999565b6103b083611d7c565b825f5260066020525f60026040822082815582600182015501556007557f6c1eaa72b20f48ebb25a2f147ea65d83207773e4e4509f10d4c9aecdef7a3d336040519160018060a01b03169180610406868261159f565b0390a35f5f516020611fa25f395f51905f525d6040519182918261159f565b0390f35b90919293986104e2600180920196876104428d8d611985565b526001600160401b0387511660028d6104676001600160401b03885116918a8a6118eb565b3560405193610475856115d8565b8452602084019182526040840190815260608401915f83528c5f5260066020526001600160401b0360405f2095511667ffffffffffffffff60401b8654925160401b16916001600160801b031916171784555186840155519101556104db8c87876118eb565b3590611663565b996104ed8789611b6f565b019392919098949861038f565b636c2b7e2d60e11b5f5260045ffd5b915061052360019161051c848a896118eb565b3590611978565b9101908791610363565b63d22806e360e01b5f5260045ffd5b635fc483c560e01b5f5260045ffd5b346102bc5760403660031901126102bc576105646114e4565b61056c6114fa565b9060018060a01b03165f52600560205260405f209060018060a01b03165f52602052602060ff60405f2054166040519015158152f35b346102bc576105b03661154a565b916105b9611b3a565b6105c281611a20565b336001600160a01b039091160361053c57600283106104fa575f925f5b81811061084d57506105f082611a54565b50815f52600660205260405f20906040519161060b836115d8565b80546001600160401b03811684526001600160401b03602085019160401c168152600182015460026040860193828552015490606086019182521561083e5761068461068e9261067f6001600160401b03809851168842168082115f146108315750809a96988b939c989c5b511690611643565b611958565b9451905190611663565b919061069987611926565b956106a386611a20565b94600754986001600160401b035f9216915b81811061072c576104258a8a8a8e6106cd8c15611999565b6007556106d982611d7c565b815f5260066020525f60026040822082815582600182015501557f6c1eaa72b20f48ebb25a2f147ea65d83207773e4e4509f10d4c9aecdef7a3d336040519160018060a01b03169180610406868261159f565b858761073e8385899a9f9798996118eb565b61074790611a0f565b63ffffffff169061075791611670565b9061076191611683565b968761076c91611663565b9a6107788284896118eb565b61078190611a0f565b63ffffffff1661079091611663565b9260010196876107a0838d611985565b52604051906107ae826115d8565b6001600160401b038716825260208201908682526040830190815260608301915f83528a5f52600660205260405f2093516001600160401b03168454915160401b67ffffffffffffffff60401b16916001600160801b031916171783555160018301555190600201556108218789611b6f565b60010199959994939291946106b5565b9a96988b939c989c610677565b63452859e760e01b5f5260045ffd5b9363ffffffff6108666108618785886118eb565b611a0f565b16156104fa5760019063ffffffff6108826108618886896118eb565b160194016105df565b346102bc5760203660031901126102bc5760206108a96004356119b4565b604051908152f35b346102bc5760203660031901126102bc576004356108ce81611a20565b50604051906108de608083611607565b6044825260208201907f68747470733a2f2f76657374696e672d6a65786963612d73746167696e672e7682527f657263656c2e6170702f6170692f6e66742f6d657461646174612f657468657260408401526365756d2f60e01b60608401528092815f9272184f03e93ff9f4daa797ed6e38ed64bf6a1f0160401b811015610ad5575b50806d04ee2d6d415b85acef8100000000600a921015610aba575b662386f26fc10000811015610aa6575b6305f5e100811015610a95575b612710811015610a86575b6064811015610a78575b1015610a6e575b6001820193600a60216109e06109ca88611628565b976109d8604051998a611607565b808952611628565b602088019590601f19013687378701015b5f1901916f181899199a1a9b1b9c1cb0b131b232b360811b8282061a835304908115610a1f57600a906109f1565b50506020610a5a92610425956040519586945180918587015e840190838201905f8252519283915e01015f815203601f198101835282611607565b6040519182916020835260208301906114c0565b90600101906109b5565b6064600291049301926109ae565b612710600491049301926109a4565b6305f5e10060089104930192610999565b662386f26fc100006010910493019261098c565b6d04ee2d6d415b85acef81000000006020910493019261097c565b6040935072184f03e93ff9f4daa797ed6e38ed64bf6a1f0160401b90049050600a610961565b346102bc5760803660031901126102bc57610b146114e4565b610b1c6114fa565b90604435606435926001600160401b0384116102bc57366023850112156102bc57836004013592610b4c84611628565b93610b5a6040519586611607565b80855236602482880101116102bc576020815f926024610b8e99018389013786010152610b8883838361174b565b33611e1a565b005b346102bc5760403660031901126102bc57610ba96114e4565b602435908115158092036102bc576001600160a01b0316908115610c1857335f52600560205260405f20825f5260205260405f2060ff1981541660ff83161790556040519081527f17307eab39ab6107e8899845ad3d59bd9653f200f220920489ca2b5937696c3160203392a3005b50630b61174360e31b5f5260045260245ffd5b346102bc575f3660031901126102bc576040515f6001548060011c90600181168015610d15575b602083108114610d0157828552908115610cdd5750600114610c7f575b61042583610a5a81850382611607565b91905060015f527fb10e2d527612073b26eecdfd717e6a320cf44b4afac2b0732d9fcbe2b7fa0cf6915f905b808210610cc357509091508101602001610a5a610c6f565b919260018160209254838588010152019101909291610cab565b60ff191660208086019190915291151560051b84019091019150610a5a9050610c6f565b634e487b7160e01b5f52602260045260245ffd5b91607f1691610c52565b346102bc57610d2d3661154a565b90610d36611b3a565b610d3f83611a20565b336001600160a01b039091160361053c576002821061052d5760015b8281106110225750610d6c83611a54565b50825f52600660205260405f2091604051610d86816115d8565b8354916001600160401b03831682526001600160401b03602083019360401c16835260018501549160026040820196848852015492606082019384521561083e576001600160401b0380610ddf92511694511684611643565b91811561100e57610def856118fb565b936355b999556001600160401b03861614610ffd575b6001600160401b039042821680821115610ff657505b166001600160401b0385161061052d575f19820192828411610fcf576001600160401b0380610e53610e4e87878b6118eb565b6118fb565b921691161061052d579295939192610e7890610e6e85611926565b9651905190611663565b956001600160401b03610e938261067f610e4e8887896118eb565b1691610e9e86611a20565b94600754945f935b828510610ec95750505050506106cd90610ec36104259715611999565b15611999565b9091929396979987155f14610fe357815b6001890190818a11610fcf576002610f2c6001948e610f43878f978e610f338f610f198f61067f610e4e610f39978f93956001600160401b03966118eb565b16978892610f278985611670565b611683565b8097611663565b9f611663565b9e019e8f92611985565b526001600160401b0360405194610f59866115d8565b168452602084019182526040840190815260608401915f83528d5f5260066020526001600160401b0360405f2095511667ffffffffffffffff60401b8654925160401b16916001600160801b03191617178455518584015551910155610fbf898b611b6f565b0193929190999796959499610ea6565b634e487b7160e01b5f52601160045260245ffd5b610ff1610e4e8987866118eb565b610eda565b9050610e1b565b426001600160401b03169450610e05565b634e487b7160e01b5f52603260045260245ffd5b611030610e4e8285856118eb565b5f198201828111610fcf576001600160401b03611052610e4e829388886118eb565b169116111561052d57600101610d5b565b346102bc5760203660031901126102bc576001600160a01b036110846114e4565b1680156110a1575f526003602052602060405f2054604051908152f35b6322718ad960e21b5f525f60045260245ffd5b346102bc5760203660031901126102bc575f60606040516110d4816115d8565b82815282602082015282604082015201526004355f526006602052608060405f20604051611101816115d8565b8154916001600160401b038084169384845281602085019160401c16815260606002600185015494604087019586520154940193845260405194855251166020840152516040830152516060820152f35b346102bc5760203660031901126102bc576020611170600435611a20565b6040516001600160a01b039091168152f35b346102bc57610b8e61119336611510565b90604051926111a3602085611607565b5f8452610b8883838361174b565b346102bc5760203660031901126102bc576004356111ce81611a20565b336001600160a01b039091160361053c576111e890611a54565b156111ef57005b63b10205ed60e01b5f5260045ffd5b346102bc575f3660031901126102bc576040517f00000000000000000000000000000000000000000000000000000000000000006001600160a01b03168152602090f35b346102bc57610b8e61125336611510565b9161174b565b346102bc5760203660031901126102bc5760206108a96004356116a1565b346102bc5760403660031901126102bc576112906114e4565b60243561129c81611a20565b3315158061134e575b80611321575b61130e5781906001600160a01b0384811691167f8c5be1e5ebec7d5bd14f71427d1e84f3dd0314c0f7b2291e5b200ac8c7c3b9255f80a45f90815260046020526040902080546001600160a01b0319166001600160a01b03909216919091179055005b63a9fbf51f60e01b5f523360045260245ffd5b506001600160a01b0381165f90815260056020908152604080832033845290915290205460ff16156112ab565b506001600160a01b0381163314156112a5565b346102bc5760203660031901126102bc5760043561137e81611a20565b505f526004602052602060018060a01b0360405f205416604051908152f35b346102bc575f3660031901126102bc576040515f5f548060011c9060018116801561144b575b602083108114610d0157828552908115610cdd57506001146113ef5761042583610a5a81850382611607565b5f8080527f290decd9548b62a8d60345a988386fc84ba6bc95484008f6362f93160ef3e563939250905b80821061143157509091508101602001610a5a610c6f565b919260018160209254838588010152019101909291611419565b91607f16916113c3565b346102bc5760203660031901126102bc576004359063ffffffff60e01b82168092036102bc576020916380ac58cd60e01b81149081156114af575b811561149e575b5015158152f35b6301ffc9a760e01b14905083611497565b635b5e139f60e01b81149150611490565b805180835260209291819084018484015e5f828201840152601f01601f1916010190565b600435906001600160a01b03821682036102bc57565b602435906001600160a01b03821682036102bc57565b60609060031901126102bc576004356001600160a01b03811681036102bc57906024356001600160a01b03811681036102bc579060443590565b60406003198201126102bc57600435916024356001600160401b0381116102bc5760040182601f820112156102bc578035926001600160401b0384116102bc576020808301928560051b0101116102bc579190565b60206040818301928281528451809452019201905f5b8181106115c25750505090565b82518452602093840193909201916001016115b5565b608081019081106001600160401b038211176115f357604052565b634e487b7160e01b5f52604160045260245ffd5b90601f801991011681019081106001600160401b038211176115f357604052565b6001600160401b0381116115f357601f01601f191660200190565b906001600160401b03809116911601906001600160401b038211610fcf57565b91908203918211610fcf57565b81810292918115918404141715610fcf57565b811561168d570490565b634e487b7160e01b5f52601260045260245ffd5b5f52600660205260405f206040516116b8816115d8565b8154906001600160401b038083169283835260401c16602082019281845260026001860154956040850196875201546060840152804210611742576001600160401b039161170591611643565b1642101561173c57611730611739936117296001600160401b038094511642611663565b9051611670565b91511690611683565b90565b50505190565b50505050505f90565b6001600160a01b03909116919082156118d8575f828152600260205260409020546001600160a01b031692829033151580611843575b5084611810575b805f52600360205260405f2060018154019055815f52600260205260405f20816bffffffffffffffffffffffff60a01b825416179055847fddf252ad1be2c89b69c2b068fc378daa952ba7f163c4a11628f55a4df523b3ef5f80a46001600160a01b03168083036117f857505050565b6364283d7b60e01b5f5260045260245260445260645ffd5b5f82815260046020526040902080546001600160a01b0319169055845f52600360205260405f205f198154019055611788565b90915080611887575b156118595782905f611781565b828461187157637e27328960e01b5f5260045260245ffd5b63177e802f60e01b5f523360045260245260445ffd5b5033841480156118b6575b8061184c57505f838152600460205260409020546001600160a01b0316331461184c565b505f84815260056020908152604080832033845290915290205460ff16611892565b633250574960e11b5f525f60045260245ffd5b919081101561100e5760051b0190565b356001600160401b03811681036102bc5790565b6001600160401b0381116115f35760051b60200190565b906119308261190f565b61193d6040519182611607565b828152809261194e601f199161190f565b0190602036910137565b906001600160401b03809116911603906001600160401b038211610fcf57565b91908201809211610fcf57565b805182101561100e5760209160051b010190565b156119a057565b634e487b7160e01b5f52600160045260245ffd5b61173990805f526006602052611a0760405f209160606002604051946119d9866115d8565b6001600160401b038154818116885260401c16602087015260018101546040870152015493019283526116a1565b905190611663565b3563ffffffff811681036102bc5790565b5f818152600260205260409020546001600160a01b0316908115611a42575090565b637e27328960e01b5f5260045260245ffd5b90611a5e826119b4565b918215611b3457805f526006602052600260405f2001611a7f848254611978565b9055611ae0611a8d82611a20565b5f838152600660205260409020600281015460019091015414611b0c575b60405163a9059cbb60e01b60208201526001600160a01b03909116602482015260448082018690528152610212606482611607565b7f06bfc9e66ca14afa6b27c5211d92e2453d2007b51cd69146f7d2b2b5654cf2b96020604051858152a2565b611b1583611d7c565b825f5260066020525f6002604082208281558260018201550155611aab565b505f9150565b5f516020611fa25f395f51905f525c611b605760015f516020611fa25f395f51905f525d565b633ee5aeb560e01b5f5260045ffd5b9060209060405190611b818383611607565b5f82526001600160a01b0384169384156118d8575f8281526002855260409020546001600160a01b03168015159081611d4b575b865f526003865260405f2060018154019055835f526002865260405f20876bffffffffffffffffffffffff60a01b8254161790558387827fddf252ad1be2c89b69c2b068fc378daa952ba7f163c4a11628f55a4df523b3ef5f80a450611d38573b611c21575b50505050565b91611c5e91819495936040519384928392630a85bd0160e11b84523360048501525f602485015260448401526080606484015260848301906114c0565b03815f885af15f9181611cf8575b50611cc15750503d15611cb9573d90611c8482611628565b91611c926040519384611607565b82523d5f8284013e5b81519182611cb65783633250574960e11b5f5260045260245ffd5b01fd5b606090611c9b565b909291506001600160e01b03191663757a42ff60e11b01611ce657505f808080611c1b565b633250574960e11b5f5260045260245ffd5b9091508381813d8311611d31575b611d108183611607565b810103126102bc57516001600160e01b0319811681036102bc57905f611c6c565b503d611d06565b6339e3563760e11b5f525f60045260245ffd5b5f8481526004602052604080822080546001600160a01b031916905582825260038852902080545f19019055611bb5565b5f818152600260205260409020546001600160a01b03168015908115611de7575b5f83815260026020526040812080546001600160a01b03191690558390827fddf252ad1be2c89b69c2b068fc378daa952ba7f163c4a11628f55a4df523b3ef8280a450611a425750565b5f83815260046020526040902080546001600160a01b0319169055805f52600360205260405f205f198154019055611d9d565b823b611e28575b5050505050565b604051630a85bd0160e11b81526001600160a01b039182166004820152918116602483015260448201939093526080606482015291169160209082908190611e749060848301906114c0565b03815f865af15f9181611ef9575b50611ed757503d15611ed0573d611e9881611628565b90611ea66040519283611607565b81523d5f602083013e5b80519081611ecb5782633250574960e11b5f5260045260245ffd5b602001fd5b6060611eb0565b6001600160e01b03191663757a42ff60e11b01611ce657505f80808080611e21565b9091506020813d602011611f36575b81611f1560209383611607565b810103126102bc57516001600160e01b0319811681036102bc57905f611e82565b3d9150611f08565b905f602091828151910182855af115611f96575f513d611f8d57506001600160a01b0381163b155b611f6d5750565b635274afe760e01b5f9081526001600160a01b0391909116600452602490fd5b60011415611f66565b6040513d5f823e3d90fdfe9b779b17422d0df92223018b32b4d1fa46e071723d6817e2486d003becc55f00a2646970667358221220420dc8b61c5f40b61180cb60c105582d98b2790490b294c44f10cd4d053f5ceb64736f6c634300081e0033",
  "devdoc": {
    "errors": {
      "ERC721IncorrectOwner(address,uint256,address)": [
        {
          "details": "Indicates an error related to the ownership over a particular token. Used in transfers.",
          "params": {
            "owner": "Address of the current owner of a token.",
            "sender": "Address whose tokens are being transferred.",
            "tokenId": "Identifier number of a token."
          }
        }
      ],
      "ERC721InsufficientApproval(address,uint256)": [
        {
          "details": "Indicates a failure with the `operator`s approval. Used in transfers.",
          "params": {
            "operator": "Address that may be allowed to operate on tokens without being their owner.",
            "tokenId": "Identifier number of a token."
          }
        }
      ],
      "ERC721InvalidApprover(address)": [
        {
          "details": "Indicates a failure with the `approver` of a token to be approved. Used in approvals.",
          "params": {
            "approver": "Address initiating an approval operation."
          }
        }
      ],
      "ERC721InvalidOperator(address)": [
        {
          "details": "Indicates a failure with the `operator` to be approved. Used in approvals.",
          "params": {
            "operator": "Address that may be allowed to operate on tokens without being their owner."
          }
        }
      ],
      "ERC721InvalidOwner(address)": [
        {
          "details": "Indicates that an address can't be an owner. For example, `address(0)` is a forbidden owner in ERC-20. Used in balance queries.",
          "params": {
            "owner": "Address of the current owner of a token."
          }
        }
      ],
      "ERC721InvalidReceiver(address)": [
        {
          "details": "Indicates a failure with the token `receiver`. Used in transfers.",
          "params": {
            "receiver": "Address to which tokens are being transferred."
          }
        }
      ],
      "ERC721InvalidSender(address)": [
        {
          "details": "Indicates a failure with the token `sender`. Used in transfers.",
          "params": {
            "sender": "Address whose tokens are being transferred."
          }
        }
      ],
      "ERC721NonexistentToken(uint256)": [
        {
          "details": "Indicates a `tokenId` whose `owner` is the zero address.",
          "params": {
            "tokenId": "Identifier number of a token."
          }
        }
      ],
      "ReentrancyGuardReentrantCall()": [
        {
          "details": "Unauthorized reentrant call."
        }
      ],
      "SafeERC20FailedOperation(address)": [
        {
          "details": "An operation with an ERC-20 token failed."
        }
      ]
    },
    "events": {
      "Approval(address,address,uint256)": {
        "details": "Emitted when `owner` enables `approved` to manage the `tokenId` token."
      },
      "ApprovalForAll(address,address,bool)": {
        "details": "Emitted when `owner` enables or disables (`approved`) `operator` to manage all of its assets."
      },
      "TokensReleased(uint256,uint256)": {
        "params": {
          "amount": "The amount of JEXA tokens that were released",
          "tokenId": "The ID of the vesting NFT"
        }
      },
      "Transfer(address,address,uint256)": {
        "details": "Emitted when `tokenId` token is transferred from `from` to `to`."
      },
      "VestingNFTMinted(address,uint256,uint256,uint64,uint64)": {
        "params": {
          "amount": "The amount of JEXA tokens that were locked",
          "creator": "The address that minted the vesting NFT",
          "duration": "The duration of the vesting period",
          "startTime": "The timestamp when the vesting starts",
          "tokenId": "The ID of the minted vesting NFT"
        }
      },
      "VestingNFTSplit(address,uint256,uint256[])": {
        "params": {
          "newTokenIds": "The IDs of the new vesting NFTs",
          "originalId": "The ID of the original vesting NFT",
          "owner": "The address that owns the original vesting NFT"
        }
      }
    },
    "kind": "dev",
    "methods": {
      "approve(address,uint256)": {
        "details": "Gives permission to `to` to transfer `tokenId` token to another account. The approval is cleared when the token is transferred. Only a single account can be approved at a time, so approving the zero address clears previous approvals. Requirements: - The caller must own the token or be an approved operator. - `tokenId` must exist. Emits an {Approval} event."
      },
      "balanceOf(address)": {
        "details": "Returns the number of tokens in ``owner``'s account."
      },
      "claimable(uint256)": {
        "params": {
          "tokenId": "The ID of the vesting NFT"
        },
        "returns": {
          "_0": "The amount of tokens that can be claimed at the current block timestamp"
        }
      },
      "constructor": {
        "params": {
          "jexaToken": "The address of the JEXA ERC-20 token that is being vested"
        }
      },
      "getApproved(uint256)": {
        "details": "Returns the account approved for `tokenId` token. Requirements: - `tokenId` must exist."
      },
      "isApprovedForAll(address,address)": {
        "details": "Returns if the `operator` is allowed to manage all of the assets of `owner`. See {setApprovalForAll}"
      },
      "mintVesting(uint64,uint64,uint256)": {
        "params": {
          "amount": "Amount of JEXA to lock  must be > 0. It is transferred                  from the caller to this contract.",
          "duration": "Total duration in seconds  must be > 0.",
          "startTime": "Timestamp when linear vesting starts (could be now or the future)."
        },
        "returns": {
          "tokenId": "The ID of the minted vesting NFT"
        }
      },
      "name()": {
        "details": "Returns the token collection name."
      },
      "ownerOf(uint256)": {
        "details": "Returns the owner of the `tokenId` token. Requirements: - `tokenId` must exist."
      },
      "release(uint256)": {
        "params": {
          "tokenId": "The ID of the vesting NFT"
        }
      },
      "safeTransferFrom(address,address,uint256)": {
        "details": "Safely transfers `tokenId` token from `from` to `to`, checking first that contract recipients are aware of the ERC-721 protocol to prevent tokens from being forever locked. Requirements: - `from` cannot be the zero address. - `to` cannot be the zero address. - `tokenId` token must exist and be owned by `from`. - If the caller is not `from`, it must have been allowed to move this token by either {approve} or   {setApprovalForAll}. - If `to` refers to a smart contract, it must implement {IERC721Receiver-onERC721Received}, which is called upon   a safe transfer. Emits a {Transfer} event."
      },
      "safeTransferFrom(address,address,uint256,bytes)": {
        "details": "Safely transfers `tokenId` token from `from` to `to`. Requirements: - `from` cannot be the zero address. - `to` cannot be the zero address. - `tokenId` token must exist and be owned by `from`. - If the caller is not `from`, it must be approved to move this token by either {approve} or {setApprovalForAll}. - If `to` refers to a smart contract, it must implement {IERC721Receiver-onERC721Received}, which is called upon   a safe transfer. Emits a {Transfer} event."
      },
      "setApprovalForAll(address,bool)": {
        "details": "Approve or remove `operator` as an operator for the caller. Operators can call {transferFrom} or {safeTransferFrom} for any token owned by the caller. Requirements: - The `operator` cannot be the address zero. Emits an {ApprovalForAll} event."
      },
      "splitByAmounts(uint256,uint256[])": {
        "details": "`amounts.length >= 2` and their sum must equal the remaining locked         amount (after releasing vested tokens). The last amount is not         automatically adjusted  caller must pass exact values.",
        "params": {
          "amounts": "The amounts at which the vesting NFTs will be split",
          "tokenId": "The ID of the vesting NFT"
        },
        "returns": {
          "newTokenIds": "The IDs of the new vesting NFTs"
        }
      },
      "splitByDates(uint256,uint64[])": {
        "details": "Rules & invariants:       `timestamps.length >= 2` and strictly increasing.       Special case: if `timestamps[0] == _USE_CURRENT_TIMESTAMP` (the Ethereum        genesis timestamp 1438226773) it is replaced with `block.timestamp` so        callers can signal now without reading the chain clock.       `scheduleStart = max(original.startTime, block.timestamp, firstTimestamp)`.        The vesting _end_ (`original.startTime + original.duration`) never moves        earlier (no-acceleration guarantee).       Number of resulting NFTs is `timestamps.length - 1`.       Remaining locked amount & duration are split _iteratively_ so that any        rounding dust is spread across slices; final asserts ensure zero        leftovers.",
        "params": {
          "timestamps": "The timestamps at which the vesting NFTs will be split",
          "tokenId": "The ID of the vesting NFT"
        },
        "returns": {
          "newTokenIds": "The IDs of the new vesting NFTs"
        }
      },
      "splitByShares(uint256,uint32[])": {
        "details": "Example: shares = [1,1,2]  25%,25%,50%. The vesting start for all new         NFTs is `max(original.startTime, block.timestamp)` so we never accelerate         token release. End date remains unchanged. Works even after vesting has         started.",
        "params": {
          "shares": "The shares at which the vesting NFTs will be split",
          "tokenId": "The ID of the vesting NFT"
        },
        "returns": {
          "newTokenIds": "The IDs of the new vesting NFTs"
        }
      },
      "supportsInterface(bytes4)": {
        "details": "Returns true if this contract implements the interface defined by `interfaceId`. See the corresponding https://eips.ethereum.org/EIPS/eip-165#how-interfaces-are-identified[ERC section] to learn more about how these ids are created. This function call must use less than 30 000 gas."
      },
      "symbol()": {
        "details": "Returns the token collection symbol."
      },
      "tokenURI(uint256)": {
        "details": "Returns the Uniform Resource Identifier (URI) for `tokenId` token."
      },
      "transferFrom(address,address,uint256)": {
        "details": "Transfers `tokenId` token from `from` to `to`. WARNING: Note that the caller is responsible to confirm that the recipient is capable of receiving ERC-721 or else they may be permanently lost. Usage of {safeTransferFrom} prevents loss, though the caller must understand this adds an external call which potentially creates a reentrancy vulnerability. Requirements: - `from` cannot be the zero address. - `to` cannot be the zero address. - `tokenId` token must be owned by `from`. - If the caller is not `from`, it must be approved to move this token by either {approve} or {setApprovalForAll}. Emits a {Transfer} event."
      },
      "vestedAmount(uint256)": {
        "params": {
          "tokenId": "The ID of the vesting NFT"
        },
        "returns": {
          "_0": "The amount of tokens that have vested at the current block timestamp (publicly viewable)"
        }
      },
      "vestingInfo(uint256)": {
        "params": {
          "tokenId": "The ID of the vesting NFT"
        },
        "returns": {
          "_0": "The vesting information for the given tokenId (publicly viewable)"
        }
      }
    },
    "title": "JEXAVestingNFT  linear vesting positions represented by ERC-721 tokens",
    "version": 1
  },
  "userdoc": {
    "errors": {
      "InvalidAmount()": [
        {
          "notice": "Thrown when an invalid amount is provided"
        }
      ],
      "InvalidAmounts()": [
        {
          "notice": "Thrown when invalid amounts are provided"
        }
      ],
      "InvalidDuration()": [
        {
          "notice": "Thrown when an invalid duration is provided"
        }
      ],
      "InvalidERC20()": [
        {
          "notice": "Thrown when an invalid ERC-20 token is provided"
        }
      ],
      "InvalidStartTime()": [
        {
          "notice": "Throws when an invalid start time is provided"
        }
      ],
      "InvalidTimestamps()": [
        {
          "notice": "Thrown when invalid timestamps are provided"
        }
      ],
      "InvalidTokenSymbol()": [
        {
          "notice": "Thrown when an invalid token symbol is provided"
        }
      ],
      "NothingToRelease()": [
        {
          "notice": "Thrown when there is nothing to release"
        }
      ],
      "NothingToSplit()": [
        {
          "notice": "Thrown when there is nothing to split"
        }
      ],
      "OnlyOwner()": [
        {
          "notice": "Thrown when the caller is not the owner"
        }
      ],
      "ZeroAddress()": [
        {
          "notice": "Thrown when a zero address is provided"
        }
      ]
    },
    "events": {
      "TokensReleased(uint256,uint256)": {
        "notice": "Emitted when tokens are released to the current owner"
      },
      "VestingNFTMinted(address,uint256,uint256,uint64,uint64)": {
        "notice": "Emitted when a new vesting NFT is minted"
      },
      "VestingNFTSplit(address,uint256,uint256[])": {
        "notice": "Emitted when a vesting NFT is split"
      }
    },
    "kind": "user",
    "methods": {
      "JEXA_TOKEN()": {
        "notice": "Address of the JEXA ERC-20 token that is being vested"
      },
      "claimable(uint256)": {
        "notice": "Amount of tokens that can be released right now."
      },
      "constructor": {
        "notice": "Constructor to initialize the JEXAVestingNFT contract"
      },
      "mintVesting(uint64,uint64,uint256)": {
        "notice": "Creates a new vesting position NFT by locking `amount` JEXA."
      },
      "release(uint256)": {
        "notice": "Releases all claimable tokens to the current owner."
      },
      "splitByAmounts(uint256,uint256[])": {
        "notice": "Splits a vesting NFT into multiple ones keeping the same dates         but distributing the remaining amount as provided in `amounts`.         Allows splitting only if the vesting has not started yet."
      },
      "splitByDates(uint256,uint64[])": {
        "notice": "Splits a vesting NFT into new NFTs according to the supplied timeline."
      },
      "splitByShares(uint256,uint32[])": {
        "notice": "Splits a vesting NFT into multiple ones keeping the same end date but         distributing the remaining, still-locked amount proportionally to `shares`."
      },
      "vestedAmount(uint256)": {
        "notice": "Amount of tokens already vested at current block timestamp."
      },
      "vestingInfo(uint256)": {
        "notice": "Returns full vesting information for a given tokenId."
      }
    },
    "notice": "Each NFT locks a fixed amount of JEXA tokens and linearly releases         them to the current owner during the vesting period. The contract         allows an owner to claim unlocked tokens (`release`), split a         position by future dates (`splitByDates`) or by amounts         (`splitByAmounts`) or by shares (`splitByShares`).         Metadata for every token is served off-chain at         https://vesting.jexica.ai/api/nft-metadata/{token-id} so that wallets         and marketplaces can present the vesting schedule to users.",
    "version": 1
  },
  "storageLayout": {
    "storage": [
      {
        "astId": 801,
        "contract": "contracts/JEXAVestingNFT.sol:JEXAVestingNFT",
        "label": "_name",
        "offset": 0,
        "slot": "0",
        "type": "t_string_storage"
      },
      {
        "astId": 803,
        "contract": "contracts/JEXAVestingNFT.sol:JEXAVestingNFT",
        "label": "_symbol",
        "offset": 0,
        "slot": "1",
        "type": "t_string_storage"
      },
      {
        "astId": 807,
        "contract": "contracts/JEXAVestingNFT.sol:JEXAVestingNFT",
        "label": "_owners",
        "offset": 0,
        "slot": "2",
        "type": "t_mapping(t_uint256,t_address)"
      },
      {
        "astId": 811,
        "contract": "contracts/JEXAVestingNFT.sol:JEXAVestingNFT",
        "label": "_balances",
        "offset": 0,
        "slot": "3",
        "type": "t_mapping(t_address,t_uint256)"
      },
      {
        "astId": 815,
        "contract": "contracts/JEXAVestingNFT.sol:JEXAVestingNFT",
        "label": "_tokenApprovals",
        "offset": 0,
        "slot": "4",
        "type": "t_mapping(t_uint256,t_address)"
      },
      {
        "astId": 821,
        "contract": "contracts/JEXAVestingNFT.sol:JEXAVestingNFT",
        "label": "_operatorApprovals",
        "offset": 0,
        "slot": "5",
        "type": "t_mapping(t_address,t_mapping(t_address,t_bool))"
      },
      {
        "astId": 7328,
        "contract": "contracts/JEXAVestingNFT.sol:JEXAVestingNFT",
        "label": "_vesting",
        "offset": 0,
        "slot": "6",
        "type": "t_mapping(t_uint256,t_struct(VestingPosition)7322_storage)"
      },
      {
        "astId": 7331,
        "contract": "contracts/JEXAVestingNFT.sol:JEXAVestingNFT",
        "label": "_nextId",
        "offset": 0,
        "slot": "7",
        "type": "t_uint256"
      }
    ],
    "types": {
      "t_address": {
        "encoding": "inplace",
        "label": "address",
        "numberOfBytes": "20"
      },
      "t_bool": {
        "encoding": "inplace",
        "label": "bool",
        "numberOfBytes": "1"
      },
      "t_mapping(t_address,t_bool)": {
        "encoding": "mapping",
        "key": "t_address",
        "label": "mapping(address => bool)",
        "numberOfBytes": "32",
        "value": "t_bool"
      },
      "t_mapping(t_address,t_mapping(t_address,t_bool))": {
        "encoding": "mapping",
        "key": "t_address",
        "label": "mapping(address => mapping(address => bool))",
        "numberOfBytes": "32",
        "value": "t_mapping(t_address,t_bool)"
      },
      "t_mapping(t_address,t_uint256)": {
        "encoding": "mapping",
        "key": "t_address",
        "label": "mapping(address => uint256)",
        "numberOfBytes": "32",
        "value": "t_uint256"
      },
      "t_mapping(t_uint256,t_address)": {
        "encoding": "mapping",
        "key": "t_uint256",
        "label": "mapping(uint256 => address)",
        "numberOfBytes": "32",
        "value": "t_address"
      },
      "t_mapping(t_uint256,t_struct(VestingPosition)7322_storage)": {
        "encoding": "mapping",
        "key": "t_uint256",
        "label": "mapping(uint256 => struct JEXAVestingNFT.VestingPosition)",
        "numberOfBytes": "32",
        "value": "t_struct(VestingPosition)7322_storage"
      },
      "t_string_storage": {
        "encoding": "bytes",
        "label": "string",
        "numberOfBytes": "32"
      },
      "t_struct(VestingPosition)7322_storage": {
        "encoding": "inplace",
        "label": "struct JEXAVestingNFT.VestingPosition",
        "members": [
          {
            "astId": 7315,
            "contract": "contracts/JEXAVestingNFT.sol:JEXAVestingNFT",
            "label": "startTime",
            "offset": 0,
            "slot": "0",
            "type": "t_uint64"
          },
          {
            "astId": 7317,
            "contract": "contracts/JEXAVestingNFT.sol:JEXAVestingNFT",
            "label": "duration",
            "offset": 8,
            "slot": "0",
            "type": "t_uint64"
          },
          {
            "astId": 7319,
            "contract": "contracts/JEXAVestingNFT.sol:JEXAVestingNFT",
            "label": "amount",
            "offset": 0,
            "slot": "1",
            "type": "t_uint256"
          },
          {
            "astId": 7321,
            "contract": "contracts/JEXAVestingNFT.sol:JEXAVestingNFT",
            "label": "released",
            "offset": 0,
            "slot": "2",
            "type": "t_uint256"
          }
        ],
        "numberOfBytes": "96"
      },
      "t_uint256": {
        "encoding": "inplace",
        "label": "uint256",
        "numberOfBytes": "32"
      },
      "t_uint64": {
        "encoding": "inplace",
        "label": "uint64",
        "numberOfBytes": "8"
      }
    }
  }
}